:100000000C94EE040C9435050C9435050C943505D0
:100010000C9435050C9435050C9435050C94350578
:100020000C9435050C9435050C94632B0C941F2B04
:100030000C94602C0C9435050C9435050C94350506
:100040000C9435050C9435050C9435050C94350548
:100050000C9435050C943C2C0C9435050C9435050A
:100060000C9435050C9435050C9435050C94350528
:100070000C9435050C9435050C9435050C94350518
:100080000C9435050C9435050C9435050C94350508
:100090000C9435050C9435050C9435050C943505F8
:1000A0000C9435050C9435050C9435050501098033
:1000B000A101850319012AB700150126B700950192
:1000C00075108100C0050C0901A101850419012AE0
:1000D000A002150126A002950175108100C005013E
:1000E0000906A1018506050719E029E71500250184
:1000F0009508750181020507190029EF15002501F2
:1001000095F075018102050819012905950575010C
:100110009102950175039101C00660FF0961A1017B
:100120000962150026FF00952075088102096315F4
:100130000026FF00952075089102C005010906A15F
:1001400001050719E029E7150025019508750181CA
:10015000029501750881010507190029FF15002680
:10016000FF00950675088100050819012905950508
:1001700075019102950175039101C0000000000016
:10018000000000000000000000000000000000006F
:100190000000000000000000000000000000007EE1
:1001A0000F00D4FFFFFFC700000078000000000030
:1001B0000000002A2B2800000000000000000000C2
:1001C00000000000000029000000002C1E34202147
:1001D0002224342627252E362D3738271E1F20218E
:1001E00022232425263333362E37381F04050607ED
:1001F00008090A0B0C0D0E0F101112131415161707
:1002000018191A1B1C1D2F3130232D350405060724
:1002100008090A0B0C0D0E0F1011121314151617E6
:1002200018191A1B1C1D2F3130354C00047F3F1F3D
:10023000643214643214783C1E1E140A05FD377AA9
:10024000585A000004E6D6B4460200210116000008
:1002500000742FE5A3E0053801BE5D003D8889C626
:100260005436C3174FE4F37259560107A7D3B35955
:100270005274B8C975C743A07454CE1C6C785545E8
:10028000A8AC4BFC28D429AF3A5315588234216FBF
:1002900089F0103CF58FEB5610F60CC8F73D1DF9B0
:1002A0008525225F20850BCC27404486713EA8D946
:1002B000ADA3DF868082674002925D6087919F24B4
:1002C000C12B0331DC37DB38BFF38E3909A51FF3AF
:1002D0009DA30F02CCC21B8B0A640F6FA552FABA02
:1002E0008A3AFF65CF343EC63ADA985B805FBBCA74
:1002F0002D679333403D77D283B55F6C3DE14E610E
:10030000AF4191660475EACF3197DFDBD4356E9348
:1003100028BAB9128E2FC07B976771602B1F468D4C
:1003200051A25C601F8D2CE6A7EFDEBD20B700391F
:100330007BBE330263BC777A2CDEAB6DC7BE908286
:10034000B13F9357CAA94BE416DB9FA6FC2AD1DA2A
:10035000CB8E419E34EA05D100F54429DFFED32D32
:100360003FE5F3462B9D59AC116A94A64BF866AC59
:10037000656A9C59F7124283FAF1151D95BB7EC739
:100380001D36B2C9ED64AF35FF82056E0A1AF0F270
:10039000245E19BCECD09F277C36554CAE1252021D
:1003A0006E1A1CA9773D6979C6979A9A7014E08AEB
:1003B0008BA24954BBEC3CCF05E66AE6EE113A8FBE
:1003C000B27DAD07143B87C18707F26F78172A61AA
:1003D000F3010AF01FA10428B226F9C1C7C6BAC1A9
:1003E00079378CD7F1D1A2CA88BDF311E529CF7630
:1003F00022C0FFA4C71FB3E4AFFB2C63C6143C307C
:10040000E4BB254D496CD5CFE728FEA116C2EE14FA
:10041000EC037EE579A4C0B2C3000000004762F09F
:10042000F0C1B82F810001DA03B90A00008215BDBE
:100430005AB1C467FB020000000004595A000101D0
:100440000101010101010102020202020202020293
:100450000303030303030303040404040404040563
:100460000505050506060606060707070707080827
:100470000808090909090A0A0A0B0B0B0C0C0C0DD8
:100480000D0D0E0E0E0F0F0F101011111112121371
:10049000131414151516161717181819191A1A1BEC
:1004A0001B1C1D1D1E1E1F2020212222232424254B
:1004B0002626272829292A2B2C2D2D2E2F30313284
:1004C00032333435363738393A3B3C3D3E3F404194
:1004D00042434445464748494A4C4D4E4F5051537C
:1004E00054555658595A5B5D5E5F61626465666833
:1004F000696B6C6D6F7072737577787A7B7D7E80B7
:1005000082838587888A8C8E8F91939596989A9C02
:100510009EA0A2A3A5A7A9ABADAFB1B3B5B7BABC16
:10052000BEC0C2C4C6C9CBCDCFD1D4D6D8DBDDDFE7
:10053000E2E4E7E9EBEEF0F3F5F8FAFDFFFFAA7F5E
:1005400055402223252628292A2C2D2F30323335B9
:1005500036383A3B3D3E4042434547494A4C4E506F
:1005600051535557595A5C5E6062646668696B6D99
:100570006F71737577797B7D7F81838587898A8C9D
:100580008E90929496989A9C9E9FA1A3A5A7A8AAA4
:10059000ACAEAFB1B3B4B6B8B9BBBCBEBFC1C2C3D9
:1005A000C5C6C7C9CACBCCCDCED0D1D2D2D3D4D573
:1005B000D6D7D7D8D9D9DADADBDBDBDCDCDCDCDC9C
:1005C000DDDDDDDDDCDCDCDCDCDBDBDBDADAD9D974
:1005D000D8D7D7D6D5D4D3D2D2D1D0CECDCCCBCA02
:1005E000C9C7C6C5C3C2C1BFBEBCBBB9B8B6B4B328
:1005F000B1AFAEACAAA8A7A5A3A19F9E9C9A9896BE
:100600009492908E8C8A89878583817F7D7B797790
:100610007573716F6D6B6968666462605E5C5A5970
:1006200057555351504E4C4A4947454342403E3D31
:100630003B3A3836353332302F2D2C2A29282625BF
:10064000232229001E001F00200021002200230079
:1006500024002500260027002D002E002A004A0035
:100660004B002B0014001A000800150017001C0096
:1006700018000C00120013002F00300031004C0055
:100680004E00390004001600070009000A000B00A4
:100690000D000E000F003300340028002A00000077
:1006A0000000E100E1001D001B000600190005002C
:1006B00011001000360037003800E500E500520058
:1006C0000000E000E300E20000002C0000002C002D
:1006D00000002C000000E6000151E4005000510031
:1006E0004F0035003A003B003C003D003E003F001B
:1006F00040004100420043004400450001004D001D
:10070000005C0100C25CC35CC55CC65CC75CC85CC5
:10071000C95CCA5C01000100010001000100010088
:1007200001000100010001000100010001000100C1
:1007300001000100010001000100010001000000B2
:1007400000000100010001000100010001000100A2
:100750000100010001000100010001000100010091
:100760000000010001000100000001000000010084
:100770000000010000000100010001000100010073
:100780000100010001000100010001000100010061
:100790000100010001000100010001000100010051
:1007A0000100010001000100010001000100010041
:1007B0000100010001000100010001000100010031
:1007C0000100010001000100010001000100010021
:1007D0000100010001000100010001000100000012
:1007E0000000010001000100010001000100010002
:1007F00001000100010001000100010001000100F1
:1008000000000100010001000000010000000100E3
:1008100000000100000001000100010001000100D2
:1008200001000100010001000100010001000100C0
:1008300001000100010001000100010001000100B0
:1008400001000100010001000100010001000100A0
:100850000100010001000100010001000100010090
:100860000100010001000100010001000100010080
:100870000100010001000100010001000100000071
:100880000000010001000100010001000100010061
:100890000100010001000100010001000100010050
:1008A0000000010001000100000001000000010043
:1008B0000000010000000100010001000100010032
:1008C00001000100010016030000020002001203F3
:1008D0000000030001001703000004000200FC02F6
:1008E0009707050001001803000006000200FE0241
:1008F00000000700020014030000080001001903B3
:100900000000120002001A030000130002001C0382
:10091000000009025B00030100A0FA0904000001C5
:100920000301010009211101000122400007058196
:10093000030800010904010002030000000921115D
:1009400001000122220007058203200001070503A0
:100950000320000109040200010300000009211125
:10096000010001226D00070584032000011201002F
:1009700002000000086B7011000100010203011C5D
:10098000037600690061006C003A006600360034AE
:10099000006300320062003300630000001C036942
:1009A000006B006B006900360038002000410075C4
:1009B0000072006F007200610000001A037700757A
:1009C00000710075006500200073007400750064FC
:1009D0000069006F000000040309040011241FBE19
:1009E000CFEFDAE0DEBFCDBF04B603FE27C08091B3
:1009F000C4049091C504A091C604B091C704873087
:100A0000904BA740B04BD1F41092C4041092C5048F
:100A10001092C6041092C70414BE84B7877F84BFA7
:100A20000FB6F894A895809160008861809360006B
:100A3000109260000FBEE0E0F8E3099511E0A0E03D
:100A4000B1E0E6E6F8E602C005900D92A63AB107DD
:100A5000D9F724E0A6EAB1E001C01D92A43CB20798
:100A6000E1F70E94872C0C94FF330C940000E8ED12
:100A7000F0E080818E7F80831092E2001092DA0095
:100A80001092E100A0EEB0E08C9181608C938081A7
:100A90008F77808319BCA7EDB0E08C918E7F8C930B
:100AA00080818F7E80831092930408952091E400CA
:100AB0003091E50095E6A9012091EC00822F81702C
:100AC00020FF06C08091E80080FF06C080E0089506
:100AD0002091E80022FD1AC08091B804882389F093
:100AE000853089F08091EB0085FD0FC02091E400F6
:100AF0003091E50042175307F9F29150E1F684E096
:100B0000089582E0089583E0089581E00895EF92CA
:100B1000FF920F931F93CF937C018B010E94560588
:100B2000C82F811117C08091E80085FD0BC080910E
:100B3000E8008E778093E8000E945605882399F399
:100B4000C82F08C0F70181917F018093F100015007
:100B5000110949F78C2FCF911F910F91FF90EF90C2
:100B600008958091BA0487FF13C08091E80082FF46
:100B700006C08091E8008B778093E80004C08091E4
:100B8000B8048111F2CF08958091B8048823D9F375
:100B90008091E80080FFF8CF8091E8008E77ECCF5D
:100BA000982F9093E900242F762F50E0891731F089
:100BB0007091EC002091ED005091F00021FD07C0F4
:100BC0009F5F973071F78093E90081E0089530913D
:100BD000EB003E7F3093EB003091ED003D7F309392
:100BE000ED003091EB0031603093EB007093EC003E
:100BF0002093ED005093F0002091EE0027FDE0CF10
:100C000080E00895CF92DF92EF92FF920F931F93AF
:100C1000CF93DF93C8EDD0E088818F7E8883E7EDA6
:100C2000F0E080818160808384E082BF81E08093F6
:100C3000930488818E7F888302EE10E0F801108291
:100C40001092DA0081EEC82ED12CF6011082888134
:100C50008F77888388818068888388818F7D888367
:100C600019BC1092B8041092B9041092B7041092F3
:100C7000B60490EEE92EF12CF70180818B7F808302
:100C800088818160888342E060E080E00E94D00536
:100C9000F60180818E7F8083F8018081816080836E
:100CA000808188608083F70180818E7F8083888146
:100CB00080618883DF91CF911F910F91FF90EF901A
:100CC000DF90CF900895FC018091C0049091C10401
:100CD00086179707A0F06115710529F49091E80037
:100CE0009E779093E80090E06115710551F49111A1
:100CF00008C08091E80082FF34C080E00895BC0104
:100D0000F2CF8091B8048823C1F18530C1F1809180
:100D1000E80083FD30C08091E80082FDEACF809139
:100D2000E80080FFE1CF8091F3002091F200382F9E
:100D30006115710519F02830310558F091E028301F
:100D4000310509F090E02091E8002E772093E8002B
:100D5000CBCF81918093F100615071092F5F3F4F9C
:100D6000E7CF8091B804882341F0853041F080912D
:100D7000E80083FFBECF81E0089582E0089583E01C
:100D800008950895089508958091950408959C010B
:100D90004FB7F89480918A0490918B04A0918C04B1
:100DA000B0918D044FBF821B930B08952FB7F89419
:100DB00060918A0470918B0480918C0490918D04D1
:100DC0002FBF08952FB7F89480918A0490918B04D7
:100DD000A0918C04B0918D042FBF089520918704B9
:100DE000309188042817390771F090938804809314
:100DF0008704E0918504F0918604309721F0008407
:100E0000F185E02D099408952091830430918404A4
:100E10002817390771F09093840480938304E0913C
:100E20008504F0918604309721F00680F781E02D4B
:100E300009940895E0918504F0918604309721F09B
:100E40000190F081E02D099480E00895CF93DF9325
:100E5000EC014091F1025091F2026091F302709125
:100E6000F4022FB7F89480918A0490918B04A0919A
:100E70008C04B0918D042FBF841B950BA60BB70B70
:100E8000843F9140A105B10518F58091F102909140
:100E9000F202A091F302B091F4028093ED029093DC
:100EA000EE02A093EF02B093F00284EF91E0A0E095
:100EB000B0E08093E9029093EA02A093EB02B09332
:100EC000EC02D093F902C093F802DF91CF9108951C
:100ED0000E94D6066093ED027093EE028093EF02BB
:100EE0009093F00282E390E0A0E0B0E0E2CFFC015A
:100EF0008481862351F492819923B9F069238085F6
:100F000083FF05C081E061110FC080E00895892F43
:100F10008F7092959F70982B862F8F7062956F704F
:100F2000682B81E09613F1CF089581E0FDCF809189
:100F3000FC029091FD029093200180931F0108957F
:100F4000FA01811101C0FB0109948091A102982F3F
:100F50009E7F61F4817082608093A1028091A402DF
:100F6000893C18F088EC8093A40208958A34B0F389
:100F700081708864F1CFAF92BF92DF92EF92FF92BF
:100F80000F931F93CF93DF93082F162FE901E42FC0
:100F9000F0E0E35CFB4F611110C0E4915E2F4E2F37
:100FA0004983E8835A83DF91CF911F910F91FF907E
:100FB000EF90DF90BF90AF900895E62EF12C449112
:100FC000D42EE42FF0E026E0829FC00111242FEF01
:100FD00030E0B9010E94D832802F90E0880F991F2D
:100FE00055E5569FD001579FB00D11248A1B9B0BCE
:100FF000982F990F890F5901AE18BF08AE9ED001E6
:10100000AF9EB00DBE9EB00D11245B2F189F8001C6
:101010001124012F11275901A01AB10AAE9E800197
:10102000AF9E100DBE9E100D11245901A81AB108D3
:10103000AE9CC001AF9C900DBE9C900D1124892FD9
:101040009927281B390B2E9FC0012F9F900D3E9F83
:10105000900D1124E92F62307105A1F050F4611553
:10106000710509F49DCF6130710581F0EB2F512F8F
:1010700097CF6430710569F080F06630710509F42E
:101080008FCFF4CFE42F4B2F592F8ACFE42F412F4E
:1010900087CFEB2F542F492F83CF4B2F5D2DE12F7F
:1010A0007FCF80E00895F894E82FE295EF70F0E0AC
:1010B00031A1282F2F7081E090E001C0880F2A9580
:1010C000EAF7982F9095932391A392A1892B82A35D
:1010D0007894089590918E0492FF06C0282F28716D
:1010E0002830F9F4877F846093FF06C0282F287189
:1010F0002831F1F4877E846120918F0420FF06C09F
:10110000382F38713830D9F4877F816021FF06C0CD
:10111000282F28712831D1F4877E816194FD877E44
:101120000895282F24712430F9F68B7F8860DCCF56
:10113000282F2471243101F78B7E8861DDCF382F71
:101140003171313019F78E7F8860E0CF282F2171FF
:10115000213121F78E7E8861E1CFCF93DF93EC01BF
:1011600082389105A9F1D8F58133910509F496C02B
:1011700048F58932910509F48AC08A9709F495C027
:10118000C11522E5D20708F0B6C0C11531E5D30775
:1011900008F026C1C83ED10508F09CC0C03ED1056C
:1011A00060F5C83AD10508F087C0C53AD10508F006
:1011B000EFC0C130D10509F12097F9F0C430D10555
:1011C000E0F440C08533910509F45AC0C997C1F6CF
:1011D00080918E04837089F0C0EED0E00EC0833E13
:1011E000910599F170F4803E910501F1823E9105DF
:1011F00039F680918E0482FD21C0CE01DF91CF911E
:101200000895863E910561F1873E910571F1843E16
:10121000910509F0B5CF80918F0481FFEECF8091C9
:101220008E04C7EED0E084FD0DC0E7CF80918E0420
:1012300080FD07C190918F0490FFDFCFC3EED0E017
:1012400084FFDBCFD0E0C0E0D8CF80918E0482FD58
:10125000FBC090918F0490FDBFCF84FFCECFF2CF23
:1012600080918E0483FDDDCFC8CF80918E0483FDF5
:10127000EEC090918F0491FFF0CFC4EED0E0BDCFCF
:1012800080918E0485FFB9CFC9E2D0E0B6CF8091BE
:101290008E0485FFB2CFC5E3D0E0AFCF80918E043E
:1012A00086FFABCFCAE2D0E0A8CF80918E0486FF44
:1012B000A4CFC1E3D0E0A1CFCF3BD10518F6C85AE7
:1012C000D0E0CC0FDD1FC25DDE4F0990D881C02D6C
:1012D000D46493CFC11540E5D40708F064C0C115AC
:1012E00080E4D80708F05CC0CE019A9581159F4133
:1012F00008F483CFA7CFC11536E5D30718F5C1157C
:1013000045E5D40708F084C0C11584E5D80708F086
:101310007AC09C2F969596959E0123703327C11510
:10132000D34508F462C0C1E0D0E002C0CC0FDD1F9D
:101330002A95E2F730E2939FC0011124C82BD92BE4
:10134000DA685BCFC1158AE5D80778F4C11599E54D
:10135000D90708F068C0C11528E5D20708F472CF94
:10136000DC2FCC27C06FD06A48CFCE0190568115B4
:10137000904208F067CF8D2F8F710E946A0890E02D
:10138000982F882788279F719C012C2BE90149C041
:10139000C55AD0E0C55DDE4FC881D0E0D0642DCF06
:1013A000DF70D06A2ACFCE01E4E096958795EA9562
:1013B000E1F783702C2F26952695237040E2249F19
:1013C00090011124382B8C2F8370C1E0D0E002C033
:1013D000CC0FDD1F8A95E2F7C22BD32BDC680DCF33
:1013E000DC2FCC27C16FD06A08CFC1E0D0E002C0AB
:1013F000CC0FDD1F2A95E2F720E2929FC001112455
:10140000C82BD92BEBCFDC2FCC27C46FD06AF5CEFD
:101410008C2F0E946A08C82FD0E0DC2FCC27CC2765
:10142000DF71D062EACE8C2F8F700E946A0834E0A0
:10143000D695C7953A95E1F7CF709C2FEC01D0690E
:10144000DCCEC9E3D0E0D9CEC2EED0E0D6CEC6EE37
:10145000D0E0D3CE80912A02882331F010922A0264
:1014600010922902109228020895CF93C82F8091DC
:101470008F0482FD0CC080912A028C1741F00E94DB
:10148000E2069093290280932802C0932A02CF910A
:10149000089580959091C20498239093C204089572
:1014A00080959091C40298239093C40208959091DE
:1014B000C402892B8093C4020895109226021092D0
:1014C00025021092240208958091FE029091FF025D
:1014D000892B89F00E94E20620912802309129028E
:1014E000AC01421B530B81E02091FE023091FF02C0
:1014F0004217530708F480E0817008958091C40278
:101500009091C204892B90912702892B8093A80186
:1015100080912A02882319F18091FE029091FF02A6
:10152000892B29F00E94640A81110E942A0A809165
:10153000A80190912A02892B8093A8018091220111
:10154000882389F180918E0487FF2DC08EE1EAEA1D
:10155000F1E090E0815048F591110E942A0A8091B3
:10156000F50280959091A80189239091F602892B2C
:101570008093A801E0918504F09186043097D1F022
:1015800090912201992349F090918E0497FF05C014
:101590008093A90186E08093A8010280F381E02D69
:1015A00088EA91E0099486E0D2CF2191222391F23A
:1015B0009F5FD0CF0895EF92FF920F931F93CF9329
:1015C000DF93EC018A85811134C0EB80FC8087E5D4
:1015D000F81A26E12E9DC0012F9D900D1124DC01EB
:1015E000AD5DBC4F1496ED91FC911597309731F09D
:1015F00054966D917C91875D9C4F099586E18E9DF7
:1016000080018F9D100D11240D5D1C4FF801878105
:101610000E94500AF80180850E94490A0E947E0AB1
:10162000188219861B861E821D8210922203109238
:101630002103DF91CF911F910F91FF90EF900895BB
:10164000CF93DF93EC018989811118C081E0898BE8
:101650008F810E94570A8091C2049885892B8093BC
:10166000C2040E947E0AEA81FB81309739F06C89BE
:101670007D89CE010696DF91CF910994DF91CF91BC
:10168000089580912101877F8093210182E00E944B
:10169000490A8091210184FF06C08F7E8093210139
:1016A00082E00E94570A8091210185FF06C08F7D4C
:1016B0008093210180E20E94570A0C947E0A809157
:1016C00023028111109223020895909122019923FF
:1016D000D1F090918E0497FF16C0E82FE695E6951D
:1016E000E695EE31E0F4F0E0E855FE4F282F277044
:1016F00081E090E001C0880F2A95EAF780959281F9
:10170000892382830895EAEAF1E09191891303C065
:10171000DF0111971C9291E0E03BF907B1F70895C2
:10172000909122019923C1F090918E0497FF14C0EB
:10173000E82FE695E695E695EE31F8F4F0E0E85509
:10174000FE4F877021E030E001C0220F8A95EAF752
:101750008281822B82830895AAEAB1E0EFEF90E0C4
:101760002D91821751F0EF3F19F4211101C0E92F9B
:101770009F5F9630A9F7EF3F09F408950E2E000CF5
:10178000FF0BE855FE4FE6CF209122029091F10128
:1017900056E0291302C080E0089530E0529FF00126
:1017A000539FF00D1124EE50FE4F7181761306C049
:1017B0007081781303C07281741304C02F5F3F4F90
:1017C0002770E7CF81E00895452B39F0682381E049
:1017D0006F3F09F080E08170089581E0FCCF809137
:1017E00022029091F101981301C008958F5F8770D4
:1017F000FACF9E3F41F19295907FE92FE80F9E2FFF
:101800009770E695E695E69583E0E89FF001112450
:10181000E353FE4F50E040E080E0219130E0092E9C
:1018200002C0369527950A94E2F721703327042EDB
:1018300001C0220F0A94EAF7822B4F5F5F4F4330BB
:10184000510559F7089580E008959E3F61F1929502
:10185000907FE92FE80F8E2F877041E001C0440F81
:101860008A95EAF7E695E695E69583E0E89FF0012C
:101870001124E353FE4F30E020E070E05191DF018E
:101880001197CB01022E02C0969587950A94E2F734
:10189000817081958527842385278C932F5F3F4F07
:1018A0002330310559F70895E92FE295EF70E250A2
:1018B000EE3070F4F0E0EF5FFB4C0C942233803F8D
:1018C00019F020F4883E20F481E00895843FE1F38C
:1018D00080E00895883EC0F3813FD1F7F5CF93FBB8
:1018E000882780F9089590E080E00E94040790E046
:1018F00080E00E94EE061092C204109227020C941F
:101900007E0A8093C3040C94730C8091C304982FB7
:101910009670963019F488600C94810C877FFCCF08
:1019200021E030E001C0220F8A95EAF720958091EE
:10193000C30482230C94810C909126028095892304
:1019400080932602282F277091F4282F082E000C50
:10195000330B9217130659F090918F0492FD07C034
:101960008595859585950E94900C0C945D0A089547
:1019700021E030E001C0220F8A95EAF78091C3048C
:10198000822B0C94810C90918F0492FD10C098E0F2
:10199000899F90011124622B609326020E94B80C4B
:1019A0000E94E206909325028093240208950C94ED
:1019B000B80C80932B020C94730C882321F00E94A6
:1019C000490A0C947E0A0895882339F09091C20444
:1019D000982B9093C2040C947E0A0895882321F0DA
:1019E0000E94500A0C947E0A0895882321F00E94D8
:1019F000570A0C947E0A0895882309F44BC0823854
:101A000071F40E941A0781FF45C089E30E94900B80
:101A10000E947E0A89E30E94650B0C947E0A83383B
:101A200059F40E941A0780FF35C083E50E94900B8D
:101A30000E947E0A83E5EFCF843859F40E941A078A
:101A400082FF28C087E40E94900B0E947E0A87E4F0
:101A5000E2CF9CEF980F913AF0F290E2980F983015
:101A600050F4877091E001C0990F8A95EAF7892FA9
:101A70000E94500AD2CF9BE5980F933020F490E05B
:101A800080E00C940407885A873120F490E080E0CD
:101A90000C94EE060895FF920F931F93CF93DF935C
:101AA000F82E0091FA021091FB020115110509F4BC
:101AB00049C01092F9021092F8021092F5021092A9
:101AC000F602D8011696CD91DC919E013A9521152A
:101AD0003F4108F4D07ED1E0C11101C0D0E0D8016F
:101AE0001996ED91FC911A97309731F01B966D91F4
:101AF0007C9180E00995D823DD2339F08CEF8C0FA1
:101B0000813A38F58C2F0E94650BFF2099F0E09107
:101B1000FA02F091FB02808584FD0CC08091F702EF
:101B2000882341F0808191819C0121503109243A20
:101B30003D45A8F00E947E0A1092FB021092FA0224
:101B40001092F702C801DF91CF911F910F91FF9082
:101B500008950E947E0A8C2F0E94FC0CD6CF0E9412
:101B60002607E8CF81FD02C08F9A08958F980895C7
:101B70009C013A9521153F4150F5FC01EE27F1708B
:101B8000BC0166277270AC01442754709C01222767
:101B9000387094FF0EC080E1EF2B09F480E0672BD2
:101BA00009F08062452B09F08064232B89F080685E
:101BB000089581E0EF2B09F480E0672B09F0826043
:101BC000452B09F08460232B19F08860089580E08C
:101BD0000895CF93DF93EC010E94FC0CCE010E948C
:101BE000B80D9E01205E31092830310510F0CD2B53
:101BF00021F4DF91CF910C94EE0CDF91CF910C94F6
:101C0000DD0C809390047093920460939104809112
:101C1000B8048430F9F48093E9008FEF9091E800E4
:101C2000815095FD06C095ED9A95F1F70000811160
:101C3000F5CF8091E80085FF0DC050E040E063E003
:101C400070E080E994E00E9487058091E8008E773B
:101C50008093E8000895BC0184E00C94010EBC015F
:101C600083E00C94010ECF93DF93EC01809122016D
:101C70008823B1F180918E0487FF32C060E284E056
:101C80008093E9008FEF9091E800815095FD06C0A8
:101C900095ED9A95F1F700008111F5CF8091E8005C
:101CA00085FF1BC08091220170E050E040E081116F
:101CB00004C050E040E068E070E0CE010E9487057B
:101CC0008091E8008E778093E80080E2FE01A6E92B
:101CD000B4E001900D928A95E1F7DF91CF910895DC
:101CE00068E081E0CDCF81E08093E00080E28093E6
:101CF000D8001092C9008FE19EE40197F1F700C06F
:101D0000000087E090EBDC018093C4049093C5044D
:101D1000A093C604B093C70488E19CE00FB6F89482
:101D2000A895809360000FBE90936000FFCF01974D
:101D300008F40895EFE9FFE03197F1F700C00000E3
:101D4000F6CF8091A10280FD0AC0E5E6F2E01182A3
:101D500010821282339652E0E13AF507C1F76A9A8F
:101D60003EB13B7F2EB124604FB7F89485E692E0F8
:101D7000FC015191CF0168E02EB9000000C057FF6F
:101D80003EB9550F000000C000C000C03EB900C001
:101D90006A9591F7F2E0813A9F0751F74FBF8FE5BF
:101DA00094E00197F1F700C000000895EF92FF92D0
:101DB0000F931F93CF93DF938C01C5E6D2E0F12CF4
:101DC000E12CF80194816091A3028091A202FAE0D3
:101DD000EF16F10414F5992311F14091A402493C46
:101DE00008F048EC9E010E94BB072FEFE21AF20AAE
:101DF000239684E1E816F10421F70E94A10EF80170
:101E0000848190E00196817099278483DF91CF913E
:101E10001F910F91FF90EF9008959923F1F29E0189
:101E200040E0E1CF8F929F92AF92BF92CF92DF922C
:101E3000EF92FF920F931F93CF93DF93EC014C81AE
:101E4000042F10E09801D8010E9437339B01AC01A8
:101E50000E944D334B015C01E0E2F0E0E01BF10B2E
:101E6000A5E5B0E0AC019B010E944D336B017C0104
:101E70009F01DF010E942F339B01AC010E94583368
:101E80009B01AC01280D391D4A1D5B1DC701B60120
:101E90000E940033F22E822F90E039E23F1508F4C1
:101EA0003EC043E0249F9001112435952795122FC1
:101EB000109595E6C92E92E0D92E00E085E5E82E32
:101EC000EF188E2D01FD8F2D412F193C08F048ECA5
:101ED00096016091A3020E94BB070F5F53E0C50EFD
:101EE000D11C043171F70E94A10E9C8181E09923DD
:101EF00019F0903219F48FEF80931C0180911C012E
:101F0000890F8C83DF91CF911F910F91FF90EF90FC
:101F1000DF90CF90BF90AF909F908F90089525E570
:101F200030E0A901481B590BCA019A01220F331F47
:101F3000280F391F37FFB9CF2F5F3F4FB6CF0F9311
:101F40001F93CF93DF93C5E6D2E0FE01118210828A
:101F50001282339682E0E13AF807C1F710E000E020
:101F600080916302082E000C990B08171907A4F141
:101F700080911B01082E000C990B8017910764F1CA
:101F80004091A402493C08F048EC9E016091A302F4
:101F90008091A2020E94BB070F5F1F4F239604315E
:101FA0001105F1F60E94A10E80911A019091630231
:101FB000980F9093630220911B01280F20931B011F
:101FC000121614F493311CF0819580931A01DF915D
:101FD000CF911F910F910895198218821A82DCCF38
:101FE000BF92CF92DF92EF92FF920F931F93CF9306
:101FF000DF93FC018281DD24DA9480FD02C0DD24C0
:10200000D39405E612E0D0E0C0E024E1B22EF8015E
:1020100011821082128294E0E92EF12CC12C809161
:1020200062028C0D85310CF440C06B2D0E94CA32C7
:10203000892F082E000C990B8C179D07A9F480910D
:10204000A4028E9DA0018F9D500D1124559547959A
:1020500055954795493C08F048EC98016091A302DA
:102060008091A2020E94BB07CD0CF1E0EF1AF108AB
:10207000B1F621960D5F1F4FC431D10541F60E9484
:10208000A10E8091620291E0D91215C0811111C098
:1020900083E180936202DF91CF911F910F91FF90B6
:1020A000EF90DF90CF90BF90089587FFC2CF8C5EF6
:1020B000C0CF8150EECF90E00196BE010E94EC327D
:1020C000E8CFEF92FF921F93CF93DF93EC0185E669
:1020D000E82E82E0F82E10E04091A402493C08F07E
:1020E00048EC8C8197016091A302810F0E94BB078D
:1020F000145F83E0E80EF11C103F71F70E94A10EFF
:102100009A818C8190FF08C08F5F8C83DF91CF9183
:102110001F91FF90EF9008958150F7CF9091A10209
:1021200090FF0CC0E5E6F2E0818360834283339642
:1021300092E0E13AF907C1F70C94A10E08950F93CC
:102140001F93CF93DF9300D00F92CDB7DEB78C01F2
:102150008091640281110AC09E012F5F3F4F48ECBD
:102160006FEF0E94BB078A8180936402F80164814B
:10217000613069F08091640240E0662361F040E0E4
:10218000623011F44091640280E060E004C060912C
:10219000640240E080E00E948E10F801848190E0AB
:1021A000019663E070E00E94EC3284830F900F9000
:1021B0000F90DF91CF911F910F910895CF93DF93EF
:1021C00000D00F92CDB7DEB79091A10290FF0DC065
:1021D000493C08F048EC9E012F5F3F4F0E94BB072F
:1021E0004B8169818A810E948E100F900F900F9011
:1021F000DF91CF910895CF93DF93EC01E1EAF2E014
:10220000438162818C810E94DE108C818F5F8C8380
:10221000DF91CF910895CF93DF93EC01EC81F0E053
:10222000EE5BFA4F4491E1EAF2E0628181810E9423
:10223000DE108C818F5F8C83DF91CF910895CF93D7
:10224000C82F882309F4A2C08238C1F40E941A075B
:1022500081FD9CC089E30E94900B0E947E0A2FEFB3
:1022600081EE94E0215080409040E1F700C00000F2
:1022700089E30E94650BCF910C947E0A8338A1F408
:102280000E941A0780FD82C083E50E94900B0E9485
:102290007E0A2FEF81EE94E0215080409040E1F7DC
:1022A00000C0000083E5E5CF8438A1F40E941A073E
:1022B00082FD6CC087E40E94900B0E947E0A2FEF83
:1022C00081EE94E0215080409040E1F700C0000092
:1022D00087E4CFCF8CEF8C0F813A88F58091220173
:1022E000882301F180918E0487FF1CC0EC2FE695B6
:1022F000E695E695F0E0E855FE4F828190E04C2FA0
:10230000477021E030E002C0220F331F4A95E2F708
:1023100082239323892B79F08C2F0E94650B0E94D6
:102320007E0A09C0EAEAF1E08191C817A9F321E029
:10233000E03BF207C9F78C2F0E94900B9CCF80E204
:102340008C0F883048F4C77081E001C0880FCA95AF
:10235000EAF70E94570A8FCFEBE5EC0FE33040F429
:10236000F0E0E55DFE4F808190E0CF910C94040792
:10237000C85AC73158F4EC2FF0E0EE0FFF1FE25DB2
:10238000FE4F80819181CF910C94EE06CF910895FC
:102390001F93CF93DF93182FC0911C03D0911D037F
:1023A000893321F0C0911A03D0911B03812F0E9421
:1023B0001F11209731F4812FDF91CF911F910C9441
:1023C000FC0C8FE99FE00197F1F700C00000219716
:1023D000F0CF0F931F93CF93DF93C42FD22FFC0125
:1023E00082818823A1F0409320030E94E20690930B
:1023F0001F0380931E03C77081E001C0880FCA9538
:10240000EAF7DF91CF911F910F910C94F50C109189
:102410002003141339C080911E0390911F030E9462
:10242000C70620911403309115038217930760F5B6
:10243000C0E2CD0F1D17B9F080E2810F883040F463
:10244000177081E001C0880F1A95EAF70E94EE0C20
:10245000C83048F481E09D2F977001C0880F9A958D
:10246000EAF70E94F50C802F0E94C811C83098F43A
:10247000D77081E001C0880FDA95EAF7DF91CF913C
:102480001F910F910C94EE0CC77081E001C0880F72
:10249000CA95EAF7F3CFDF91CF911F910F9108957D
:1024A000CF93DF93EC010E94B80D9E01205E3109AD
:1024B0002830310510F0209739F40E94F50C8C2F4C
:1024C000DF91CF910C941F110E94E40CF8CF66238A
:1024D00029F02091C20422602093C2049C0130564E
:1024E000211540E2340720F0305E2115304108F418
:1024F00099270C945012DF92EF92FF920F931F9343
:10250000CF93DF937C018B01D42E8091210182FF38
:102510008CC0C091E702D091E802CE15DF0521F012
:10252000E114F10409F081C0809121018B7F809337
:10253000210181FD73C08091E5029091E602A8011E
:10254000481B590B81E020911F0130912001421757
:10255000530708F480E08170F82E80912101F0FA91
:1025600081F980932101FE0183E0F695E7958A9534
:10257000E1F7EE71FF27EB53FD4F20813181AE0172
:102580004F70552781E090E002C0880F991F4A954F
:10259000E2F7FF2009F444C0822B932B91838083C0
:1025A0008091C40281FF08C08091210180618093E5
:1025B000210182E00E94500A8091C40285FF08C078
:1025C0008091210180628093210180E20E94500A63
:1025D0006F2DCE010E946712DD2031F0809117032C
:1025E00085FF02C086FF3BC080911A0390911B03B8
:1025F0000E94970E8091E7029091E8029C0130566C
:10260000211540E2340720F0305E2115304108F4F6
:1026100099270E94E90D0E94410B1DC081E09BCFCC
:102620008095909582239323B9CFC701992797016D
:102630003056211540E2340728F0305E2115304134
:1026400008F0C7010E94E90D8091E7029091E8022D
:102650008E159F0501F31093E6020093E502DF91CA
:10266000CF911F910F91FF90EF90DF900895AF925F
:10267000BF92CF92DF92EF92FF920F931F93CF936F
:10268000DF93EC018AE0A82E2881222309F48CC074
:102690002130C9F599818A81913021F422960E94D6
:1026A000C81105C0923029F422960E941F1121966C
:1026B000EBCF933021F422960E94FC0CF8CF94309B
:1026C00011F02196F4CF229630E020E0AE014F5F6A
:1026D0005F4F8053990B8A30910550F0215031099A
:1026E00030F38FE99FE00197F1F700C00000F6CFCB
:1026F000A29EB001A39E700D11249C01260F371FCE
:102700008981EA01E3CFE22FF0E0E555FE4FB49076
:10271000822F86958695869590E0FC01E556FE4FC2
:10272000E4902770F12C022E02C0F594E7940A94ED
:10273000E2F731E0E322FF24FC01E557FE4FC490AD
:10274000D12C022E02C0D594C7940A94E2F731E04E
:10275000C322DD24FC01E558FE4F049110E002C0C5
:10276000159507952A95E2F701701127E114F104F8
:1027700019F081EE0E941F11C114D10419F086EEE8
:102780000E941F118B2D0E94C811CD2819F086EED2
:102790000E94FC0CEF2819F081EE0E94FC0C012B2A
:1027A00009F485CF8CE27BCFDF91CF911F910F9100
:1027B000FF90EF90DF90CF90BF90AF9008950F9370
:1027C0001F93CF93DF930CEF12E0C7EAD2E0CE0164
:1027D0000E94AF33F80181938F012196C93CF2E04A
:1027E000DF07A9F7C8ECD8E0FE0185919491009726
:1027F00011F0FC0109952896F9E0C831DF07A1F72F
:10280000DF91CF911F910F9108950F931F93CF9355
:10281000DF93843030F5653020F5403110F520E24B
:10282000629F8001112450E0440F551F040F151FB3
:1028300030EA839F000D111D1124C80187960E9464
:10284000AF33C82FD0E0DC2FCC27C80188960E9478
:10285000AF339E01282BC901DF91CF911F910F91BA
:10286000089590E080E0F8CF462F2091C202309189
:10287000C302232B91F47E3F39F46E3F71F48091B3
:10288000C0029091C1020895843038F4753028F464
:10289000603118F4672F0C94051490E080E00895DF
:1028A000CF92DF92FF920F931F93CF93DF936C0130
:1028B0000091C30480912B02082BC7E0D0E010E008
:1028C000FC2EC8010C2E02C0959587950A94E2F75C
:1028D00080FD0CC02197A0F7F12C8F2DDF91CF91B7
:1028E0001F910F91FF90DF90CF900895B6018C2F2C
:1028F0000E9434140E94AD08019761F3EECFCF938C
:10290000DF93EC010E945014BE010E943414DF9149
:10291000CF910C94AD08FC01808191810E947F14BD
:102920000C94540C1F93CF93DF9300D000D00F92E0
:10293000CDB7DEB749835A8389819A816623B9F07E
:102940002223A9F00E945014182F682F89819A81A0
:102950000E94250C69817A81812F0F900F900F9032
:102960000F900F90DF91CF911F910C9434140E941F
:10297000F90B182FEFCFFC01262F40815181628186
:10298000738184810C94921483E290E00E94AF33AF
:10299000813889F484E290E00E94AF338D3959F494
:1029A00085E290E00E94AF3391E0823709F090E039
:1029B000892F8170089580E0FCCFCF9384E090E070
:1029C0000E94AF33C82F82E290E00E94AF33982F6D
:1029D0008C2FCF9108950F931F93CF93DF930CEF1C
:1029E00012E0C7EAD2E0CE010E94AF33F801619154
:1029F0008F01681719F0CE010E94C3332196C93C9C
:102A0000F2E0DF0781F7DF91CF911F910F910895D9
:102A1000ECEFF2E0128E138E8FEA90E091838083C8
:102A200085E0848F88E893E19383828382E390E05A
:102A3000978B868B8AEF90E0918F808F158E8AE03E
:102A400090E0978F868F80E590E091A380A30E940D
:102A5000EB140C94DF13CF93DF93C9E6D3E060E06F
:102A6000CE010E94C3332196C11584E0D807B9F77F
:102A7000DF91CF9108950F931F93CF93DF93890137
:102A8000843048F5653038F5403128F521153C454E
:102A900031F420911D0130911E01232BE1F090E2D1
:102AA000699FE001112450E0440F551FC40FD51F4A
:102AB00090EA899FC00DD11D1124612FCE01879608
:102AC0000E94C333602FCE018896DF91CF911F9172
:102AD0000F910C94C333DF91CF911F910F91089503
:102AE000CF93C82F6FEF811161E883E290E00E94DD
:102AF000C3336FEFC1116DE984E290E00E94C333EC
:102B00006FEFC11162E785E290E0CF910C94C3337F
:102B1000CF93C0918F04C2FB992790F9981799F031
:102B200080FBC2F9C0938F0460918E0484E090E032
:102B30000E94C3336C2F82E290E00E94C33382E094
:102B4000CF910C949C0CCF9108957F928F929F927D
:102B5000AF92BF92CF92DF92EF92FF920F931F93AB
:102B6000CF93DF93CDB7DEB72A970FB6F894DEBFC9
:102B70000FBECDBFA0901D01B0901E0181E090E07E
:102B800090931E0180931D0182E4C82E86E0D82E0A
:102B900000E0760110E015C0F40125913491472D35
:102BA000612F802F0E943B1582E0880E911C739448
:102BB00080E17812F1CF80E2E80EF11C1F5F153042
:102BC00019F04701712CE8CF0F5F80EAC80ED11CC5
:102BD0000430F9F60E9408151A8219821C821B82A1
:102BE0001E821D8218861F828AEF90E09A8789874D
:102BF00009EC12E04AE050E0B801CE0101960E94D3
:102C0000E733065F1F4F093683E0180799F7B09244
:102C10001E01A0921D012A960FB6F894DEBF0FBECA
:102C2000CDBFDF91CF911F910F91FF90EF90DF907B
:102C3000CF90BF90AF909F908F907F90089580E04D
:102C40000E94701560E086E290E00E94C3330E940B
:102C5000A5150E942B1581E00C9470159B01803105
:102C600070F49AE0899FB001112467537D4F4AE0C8
:102C700050E0C9010E949F3390E080E008958FEFFB
:102C80009FEF08958F929F92AF92BF92CF92DF9263
:102C9000EF92FF920F931F93CF93DF93CDB7DEB7E1
:102CA0002A970FB6F894DEBF0FBECDBF03E213E044
:102CB000F12CE12C85EDC82E88E2D82E9FEFA92EAD
:102CC00098E2B92E2EE3822E28E2922EF801D182CC
:102CD000C082B382A28295828482F58AE48ABE0190
:102CE0006F5F7F4F8E2D0E942E16892B29F48985C8
:102CF0009A85F801938B828BFFEFEF1AFF0A0A5E29
:102D00001F4F80E1E816F10409F72A960FB6F894F0
:102D1000DEBF0FBECDBFDF91CF911F910F91FF900E
:102D2000EF90DF90CF90BF90AF909F908F900895DD
:102D30006091A102669570E04BE050E08FE091E079
:102D40000E947533892B19F481E0809361020E94FF
:102D5000E20690935B0280935A020895CF92DF922D
:102D6000EF92FF926B017C010E94A507B701A601BB
:102D700088E090E0FF90EF90DF90CF900C94D533F7
:102D80005F926F927F928F929F92AF92BF92CF92FB
:102D9000DF92EF92FF920F931F93CF93DF9300D0B8
:102DA0000F92CDB7DEB7082F762E142F622E90919A
:102DB000A10290FF2DC0E92FE695AE2FB0E0AF58ED
:102DC000BE4F8C91809360029E7F9230A1F5493C6A
:102DD00008F048EC9E012F5F3F4F672D802F0E9427
:102DE000BB074B8169818A810E948E100093A202E9
:102DF0007092A3021093A402662051F06091A10288
:102E00007091A2028091A3029091A4020E94AE163A
:102E10000F900F900F90DF91CF911F910F91FF9026
:102E2000EF90DF90CF90BF90AF909F908F907F906A
:102E30006F905F900895823019F41091A402D6CF5C
:102E4000863019F40091A202D1CF8930D9F38931AB
:102E500069F6E9518E2F8170582EE695F0E0E35C1B
:102E6000FA4FA590B490BB2485E6E82E82E0F82EB8
:102E7000D12CC12C94E1892E912CC601B4010E9461
:102E8000D832802F511016C0860F412F193C08F000
:102E900048EC9701672D0E94BB07CA0CDB1C83E03E
:102EA000E80EF11C81EAE81682E0F80631F70E948C
:102EB000A10E9CCF861BE9CFE1EAF2E0438128E036
:102EC000421B08F440E021E0628181810C94C0162D
:102ED000E1EAF2E0438128E0420F08F44FEF21E0FD
:102EE000628181810C94C016E1EAF2E0628128E0FF
:102EF000621B08F460E021E0438181810C94C016DC
:102F0000E1EAF2E0628128E0620F08F46FEF21E06D
:102F1000438181810C94C016E1EAF2E0818121E0D5
:102F20004381628188500C94C016E1EAF2E081810D
:102F300021E043816281885F0C94C0168091A502D4
:102F4000882319F081508093A5026091A1027091AD
:102F5000A2028091A3029091A4020C94AE168091DB
:102F6000A502833018F48F5F8093A5026091A102BF
:102F70007091A2028091A3029091A4020C94AE16CB
:102F80009091A10290FF36C09170811129C092608A
:102F90009093A102662351F06091A1027091A20268
:102FA0008091A3029091A4020E94AE166091A102AA
:102FB000669570E04BE050E08FE091E00E94753341
:102FC000892BA9F01092610281E080935D0220E0DC
:102FD0004091A4026091A3028091A2020C94C016B9
:102FE000853210F09864D4CF880F982BD1CF0E94EF
:102FF0009816EACF08958091A1028695815009F430
:1030000084E261E00C94C0178091A10286958F5FE5
:10301000853208F081E061E00C94C0179091A10224
:1030200090FF07C09695981720F0961710F40C940F
:10303000041861E00C94C017E1EAF2E083E08083B9
:1030400011828FEF828388EC838314826081718187
:10305000828193810C94AE161092C4028091220159
:10306000EAEAF1E0882359F080918E0487FF07C0D7
:103070008EE1DF011D928A95E9F70C94730C86E0CE
:10308000F8CF1F93CF93DF93CDB7DEB7AA970FB6D4
:10309000F894DEBF0FBECDBF8AEB94E02091F10023
:1030A000DC012D93CD01B4E0823C9B07B9F7809100
:1030B000BB04833009F472C0B8F4813009F449C00C
:1030C000823009F4B3C08091E80083FF96C28091FA
:1030D000BA049091BB049A3008F08FC2E92FF0E057
:1030E000E15FFB4C0C9422338A3009F48EC08B30A4
:1030F00009F471C0893039F78091BA04813219F727
:103100008091BE049091BF04009711F00297D9F608
:103110008091E800877F8093E8008091E80082FF3B
:1031200038C09091F3008091F200029731F48091C1
:10313000F100813011F0863021F48091F10080930C
:1031400095048091E8008B778093E8000E94B10598
:10315000BACF8091BA04813A09F0B5CF8091E800E6
:10316000877F8093E8008091BE049091BF04892BF3
:1031700061F460E286E994E070E00E946306809169
:10318000E8008B778093E8009ECF60E090E080E0DD
:10319000F3CF8091B8048111C0CF95CF8091BA044C
:1031A000813A09F090CF8091BE049091BF04892BA1
:1031B00009F089CF8091E800877F8093E8008091B3
:1031C000E80080FFFCCF809122018093F100809184
:1031D000E8008E77B9CF8091BA04813209F073CFBD
:1031E0008091BE049091BF04892B09F06CCF80912F
:1031F000E800877F8093E8000E94B1058091BC04BD
:10320000809322010E942C185ECF8091BA048132F3
:1032100009F059CF8091E800877F8093E8000E94F1
:10322000B1058091BD04809394044DCF8091BA0480
:10323000813A09F048CF8091E800877F8093E800C9
:103240008091E80080FFFCCF80919404BECF80384D
:1032500099F0823809F0D1C18091BE048F70873017
:1032600008F0CBC18093E9008091EB0085FB8827B3
:1032700080F91092E90006C08091B6049091B704DD
:10328000911182609091E800977F9093E80080937D
:10329000F1001092F1008091E8008E77AAC1882396
:1032A00009F498C1823009F0A8C18091BC04811151
:1032B0009BC18091BE048F702FEF280F263008F03D
:1032C0009CC18093E9002091EB0020FF8DC19330D9
:1032D00031F48091EB0080628093EB0085C1909186
:1032E000EB0090619093EB0021E030E001C0220FF1
:1032F0008A95EAF72093EA001092EA008091EB00A9
:103300008860EACF811179C11091BC041F77809148
:10331000E3008078812B8093E3008091E800877F31
:103320008093E8000E94B1058091E80080FFFCCF07
:103330008091E30080688093E30082E0111183E0D4
:103340008093B8045AC18058823008F056C1209149
:10335000BC043091BD042C3DE3E03E07A1F583E0C1
:103360008A838AE289834FB7F894DE01139620E0BE
:103370003EE051E2E32FF0E050935700E49120FF4C
:1033800003C0E295EF703F5FEF708E2F90E0EA3060
:10339000C0F0C7968D939D932F5F243159F74FBF8F
:1033A0008091E800877F8093E8006AE270E0CE01B8
:1033B00001960E9463068091E8008B778093E80075
:1033C0001CC1C096E7CF8091BE049091BF04432FEB
:1033D00055274330510509F44AC078F5413051056D
:1033E00009F485C08BE590E0E2E1F9E04230510557
:1033F00009F003C12091E800277F2093E800209185
:10340000C0043091C1048217930708F49C0140E086
:103410002115310509F070C041116EC08091E8009E
:1034200082FDC9CF8091B804882329F2853019F232
:103430008091E80083FFF2CFBECF4132510509F4FD
:1034400047C04232510509F0D8C08330910508F0D9
:10345000D4C0FC01EE0FFF1FE756FE4F0190F08134
:10346000E02D8A569E4FDC018C9190E01DC03327E1
:1034700021303105E9F02115310579F0223031058F
:10348000F9F02330310509F0B8C0EFE7F9E0E49135
:103490008E2F90E0EFE7F9E007C0E7EDF9E0E49167
:1034A0008E2F90E0E7EDF9E0009709F4A6C0A2CFD7
:1034B000EBEBF9E0E4918E2F90E0EBEBF9E0F4CF49
:1034C000EDE9F9E0E4918E2F90E0EDE9F9E0ECCF41
:1034D0008330910508F091C0880F991FFC01E156D7
:1034E000FE4F0190F081E02D89E090E083CF82E1F2
:1034F00090E0EDE6F9E07ECF8091B804882309F4EE
:103500005ACF853009F457CF8091E80083FD53CF1F
:103510008091E80082FD82CF8091E80080FF78CF23
:103520009091F3008091F2002115310519F0883057
:10353000910550F041E0089709F040E08091E800E3
:103540008E778093E80064CF44914093F1003196E8
:10355000215031090196E8CF803809F04EC08091A2
:10356000E800877F8093E8008091B9048093F100A0
:1035700092CE811142C01091BC041230F0F58091BE
:10358000E800877F8093E8001093B9040E94B1059A
:10359000112311F084E005C08091E30087FDFACF8C
:1035A00081E08093B80442E061EC81E00E94D005A4
:1035B00042E261EC84E00E94D00542E261EC82E0EC
:1035C0000E94D00542E260EC83E00E94D005809129
:1035D000B80413C08091BC04813079F481E0933049
:1035E00009F080E08093B7041092E9008091E80030
:1035F000877F8093E8000E94B1058091E80083FFF7
:103600000AC08091E800877F8093E8008091EB00FA
:1036100080628093EB00AA960FB6F894DEBF0FBECF
:10362000CDBFDF91CF911F9108956AEE7EEF90E0BC
:1036300080E00E94E13360E082E090E00E94C333CA
:1036400060E083E090E00E94C33310922B0260E0C0
:1036500084E090E00E94C33360E082E290E00E9448
:10366000C33360E085E090E00E94C33360E086E011
:1036700090E00E94C3336FEF87E090E00E94C33375
:1036800040E050E0BA0188E090E00E94D53360E06D
:103690008DE090E00E94C33340E050E0BA0188E141
:1036A00090E00E94D53360E087E190E00E94C33350
:1036B00040E050E0BA018CE190E00E94D53370E028
:1036C00060E080E290E00E94E13340E050E0BA0127
:1036D00088E190E00E94D53380E00E9470150E943E
:1036E0001F1640E050E0BA018FE090E00E94D53311
:1036F00040E050E0BA0183E190E00C94D5338F9222
:103700009F92AF92BF92CF92DF92EF92FF920F9370
:103710001F93CF93DF9300D000D0CDB7DEB77C01ED
:10372000DC0113964D915C91149711966C91119751
:103730008C910E94E40B8111CBC061E0C7010E9413
:10374000BB148C01F7018281811161C0D7011296EF
:103750008C9181119BC000313FE5130709F440C1F2
:1037600001314FE5140709F43FC1680127E5D21A7A
:103770003FEFC316D10409F060F566EB72E08C2DC3
:103780000E942E16892B29F586E18C9DF0018D9DD6
:10379000F00D1124ED5DFC4F8681813009F026C1CA
:1037A0008091B6029091B702892B99F08091B8026E
:1037B0009091B902892B69F08091BA029091BB0275
:1037C0002091BC023091BD02822B932B892B09F4EE
:1037D00017C1F701C280CC2009F424C10F35FDE5E3
:1037E0001F0709F41BC100362DE5120751F00E35F5
:1037F0003DE5130709F016C180910001882309F403
:103800000DC11092000180E00E944B0D51C08091CB
:10381000010190910201019609F498CF63E2C62E4E
:1038200063E0D62EB12CA12C9924939480910101B0
:10383000909102018A159B050CF488CFF6018681D0
:103840008823E9F0818592850817190739F480915A
:103850002103909122030817190789F0D6011F96BA
:103860009C921F971C961C930E931B97C6010E9457
:10387000200BC60106960E94DB0A1092C204BFEF1D
:10388000AB1ABB0AE6E1CE0ED11CD0CFC8018251E3
:103890009F45409710F00C949E248FEF93E00E9478
:1038A000AF335EEED52ED00E09E613E0882369F122
:1038B00080912602877061F0D70112968C9188233F
:1038C00039F080918F0482FD03C082E00E949C0C3D
:1038D0000F900F900F900F90DF91CF911F910F914C
:1038E000FF90EF90DF90CF90BF90AF909F908F9020
:1038F00008950115F4E01F07D9F2C8010E94AF3303
:10390000811101C0DA940F5F1F4FD110F2CF1982DD
:103910001A821B821C82CC24CA9448012FEF821A7F
:10392000920AC8010E94AF3389831A82882309F45E
:10393000BFCF813009F048C0580132E0A30EB11C5E
:10394000C4010E94AF33982E8A83882309F4B0CF34
:10395000C5010E94AF33D82E8FEF890D833068F4F4
:10396000580143E0A40EB11CDB82DD2021F0CE0122
:1039700001960E9437138501D0CF54E09512FBCFFA
:10398000580184E0A80EB11CC80103960E94AF3311
:10399000DD2009F48DCF882309F48ACF8150990B5B
:1039A000C89E9001C99E300D1124AD2DA150BB0BB6
:1039B000CD01820F931F0197F0F2EFE9FFE03197FD
:1039C000F1F700C00000F7CFCE0101960E94371337
:1039D0005401D1CF81E00E94B80C0E94850C68CFC1
:1039E00081E00E94900CF9CF82E0FBCF823009F099
:1039F000F0CE8091BA029091BB02892B09F4E9CEF6
:103A000026E12C9DC0012D9D900D11248D5D9C4FB4
:103A1000DC0150961C920E94200BDBCE81E080934B
:103A2000000146CF80910001882309F4C6C65801E1
:103A300040EEA41AB108D0902A0280912302D82A1D
:103A40008091C402D82A58E0A516B10418F598014F
:103A50002770332781E090E001C0880F2A95EAF7AC
:103A6000CC20A9F0D82A8091FA029091FB0200970D
:103A700009F4A3C6A8E0AA16B10410F56D2D0E94A2
:103A8000770781119AC681E00E944B0D96C68095FA
:103A9000D822E9CFCC2009F43CC71093C901009388
:103AA000C8010E94D6066093F1027093F2028093DF
:103AB000F3029093F4021092F9021092F802D3CF1D
:103AC000FC01208131810217130709F06FC6C11074
:103AD0006FC61092F70280E0D7CF882309F4BCC6E6
:103AE000FA018189882309F4B7C6C501875D9C4F17
:103AF0000E94DB0AB1C6809121018160809321017F
:103B0000D9C6809121018E7F809321010E94410BB3
:103B1000D1C6809121018F7E013E110531F0053E15
:103B20001105C9F4809121018F7D8093210180913D
:103B3000210180FFCEC6D70112968C910832110563
:103B400028F50E31110508F074C00430110580F518
:103B50008111BBC6BEC6C8019056811540E29407CC
:103B600020F0905E8115904110F78091210182FF35
:103B7000B0C68091190381FDACC62FE232E040E06F
:103B8000B60190E080E00E947B12A3C609331105C4
:103B900058F40D32110518F40B321105C9F6909145
:103BA000170392FDD5CF08C004361105C1F3D0CF5D
:103BB0009091170394FDCCCF882309F4A1C0909174
:103BC000C40280912A02282F292B322F3D7FB1F188
:103BD0001092E8021092E7023091170331FD2EC0D7
:103BE000F80143E0F695E7954A95E1F7EE71FF2776
:103BF000EB53FD4F98012F70332781E090E002C016
:103C0000880F991F2A95E2F7809590952081318140
:103C1000822393239183808360E0C8010E9467120E
:103C200080912A028D7F0E94350A82E00E949C0CBE
:103C30003FCE9091170393FD8BCFBECF36E0F701B7
:103C4000AFE2B2E001900D923A95E1F710923102A5
:103C50001092330210923202A090E702B090E80274
:103C60000A151B05B1F53091170335FF32C040919D
:103C7000210141FB992490F841FF02C036FF29C081
:103C80004091E5025091E602B601641B750B40912C
:103C900014035091150364177507D8F491FF08C0F9
:103CA0008091210180618093210182E00E94500A6D
:103CB0008091C40285FF08C08091210180628093B9
:103CC000210180E20E94500A692DC5010E946712FD
:103CD000EFCD9091210121FB91F9909321018D7FEE
:103CE0000E94350A1093E8020093E702D092E602A0
:103CF000C092E5028091210184608093210195CFDB
:103D0000970140E0B601C8010E947B12D1CD053F6A
:103D10004CE5140709F467C008F45FC0063F8CE562
:103D2000180709F466C0D70112963C91332309F4B1
:103D300012C6109220030330BDE51B0708F065C0D2
:103D40000A3FECE51E0730F4C80182509C454497B9
:103D500008F060C00E94DD1490938F0480938E045D
:103D600000312CE5120709F48EC108F00AC10830B1
:103D70004CE5140709F475C108F0DCC004308CE58B
:103D8000180709F460C108F0C2C00230ACE51A0798
:103D900009F453C180918E04826003301C4509F4FC
:103DA0004FC160918E0410918F0484E090E00E94D6
:103DB000C333612F82E290E00E94C3330E942C182B
:103DC00077CD07E225EE45EE68ED7CE59DC506E280
:103DD00021EE40EE63EF7CE597C507E225EE44EE69
:103DE00064EF7CE591C506E221EE42EE65EF7CE5ED
:103DF0008BC507E225EE46EE66EF7CE585C508E259
:103E000021E045EE69ED7CE57FC50136FDE51F0744
:103E100009F4A0CF06318CE5180709F4A0C58091FC
:103E2000C40282720C3C4CE5140709F40AC208F083
:103E30008CC1063C9CE5190709F4EFC108F063C189
:103E4000033CBCE51B0709F4DEC108F04BC1023C92
:103E5000FCE51F0709F4B2C10A358DE5180709F41E
:103E60002EC208F00AC20115ACE51A0709F417C200
:103E70000E3D1C4509F420C2F701828100811181A9
:103E8000882309F420C2C8010E945014D82E682F3C
:103E9000C8010E94250CB8018D2D0E9434140E9487
:103EA000AD088C01882ED7011296CC9012971596EA
:103EB000DC90D2943FE0D322809126028770C1F03B
:103EC000AC2CCC20B1F0812F807F803421F080E2B7
:103ED000800F883068F080918F0482FD09C082E0F5
:103EE0000E949C0C809126028770AA24A3948111C1
:103EF000A12C912E92942FE09222BBE0B91508F4E8
:103F00005EC2E92DF0E0E75EFB4C0C942233809119
:103F10008E0480610630ECE51E0709F491C08091A3
:103F20008E04886007301C4508F48AC080918E0496
:103F3000806286C080918E048D7F0C302CE5120744
:103F400009F47EC070F480918E048C600A304CE5D8
:103F5000140709F475C008F488C080918E048E7F20
:103F60006FC00E308CE5180709F485C080918E046F
:103F70008B7F0F301C4508F463C080918E048F7EC8
:103F80005FC00C3FACE51A0709F479C068F504314D
:103F9000ECE51E0709F48BC080F402312CE5120712
:103FA00009F475C080918E048F7B03311C4508F4A1
:103FB00047C080918E04837F43C00A3F4CE51407BD
:103FC00009F445C008F049C005311C4509F0E9CEA7
:103FD00080918E0482FB992790F921E0922790FB33
:103FE00082F990FB83F92CC001159DE5190709F4AE
:103FF00054C088F480918F0483600E3FBCE51B079A
:1040000049F180918F048D7F0F3F1C4518F18091FD
:104010008F048C7F1FC00230FDE51F0709F456C0D6
:1040200008F44EC001361D4509F0BBCE90918E04B8
:10403000892F8F7E94FF806103C080918E04816000
:1040400080938E04AECE80918E048460F9CF8091EF
:104050008F04816080938F04A4CE80918F0482604E
:10406000F9CF80918E048064EBCF0E942C18809150
:104070008E048068E5CF80918E04877FE1CF8091A8
:104080008F048E7FE7CF80918E048F7DD9CF0E94E1
:104090002C1880918E048F77D3CF80918F04982F26
:1040A000909591708E7F892B90FB81F9D3CF0E94E0
:1040B0002C1890918E04892F97FB87F98058C0CFD8
:1040C00061E08EE090E00E94C3336BCE60E0F9CFF8
:1040D0008091CA01811104C089E20E94650B6AC403
:1040E00085E3FBCF043C2CE5120709F491C04CE8B2
:1040F00057E165E977E1053C3CE5130709F0ACCEF3
:104100000E94A007D5CB093C4CE5140709F48FC0E9
:1041100070F4073C9CE5190709F484C040E857E1B6
:1041200064E777E1083CACE51A0751F395CE0A3C09
:10413000BCE51B0709F480C04EE957E16FEA77E15F
:104140000B3CECE51E07E1F287CE013DFCE51F07C5
:1041500009F487C0A0F40E3C3CE5130709F479C0CC
:1041600008F474C00F3C5CE5150709F477C0003D06
:104170008CE5180709F070CE6EE089E06CC0043D54
:104180009CE5190709F473C078F4023DBCE51B07F0
:1041900009F46AC061E088E1033DECE51E0709F01F
:1041A0005BCE0E94C01784CB053DFCE51F0709F4D8
:1041B00061C00D35100709F47BCB4ECE8091A10272
:1041C00080FF1BC08E7F8093A1026091A10270913D
:1041D000A2028091A3029091A4020E94AE161092B6
:1041E00061023FEF40E752E0315040405040E1F77C
:1041F00000C000000E94A10E5BCB81608093A102F1
:1042000061E08695CECF4BEF57E164E078E178CF5F
:1042100044E058E16BEF77E173CF45E957E16CE893
:1042200077E16ECF44E757E160E877E169CF4CE58D
:1042300057E168E677E164CF48E657E16CE577E15E
:104240005FCF4FEA57E16EE977E15ACF61E081E055
:10425000A8CF65E082E00E940E182ACB68E086E0D5
:10426000FACF64E18FE0F7CF67E185E1F4CF62E256
:1042700089E1F1CF61E083E294CF0B35EDE51E07D4
:1042800001F10C351D4509F0F7CD80918F0482FBBB
:10429000882780F991E089270E948815EDCD0E943A
:1042A0002C182FEF34E34CE0215030404040E1F730
:1042B00000C000000E94730E0E94151BF9CA81E025
:1042C000EBCF80E0E9CFC8010E94F90BD82EE3CDF7
:1042D000E12FEF70BE2E812F807F19F0B29490EF06
:1042E000B922CC20A9F0BB2059F080E2800F8830A1
:1042F00010F0811007C08B2D0E94570A0E947E0A81
:10430000802F5BC08091C204B82AB092C204F6CF5D
:10431000802F0E94FC0CBB2009F451C080E2800F6A
:10432000883010F0811004C08B2D0E94500A03C009
:104330008B2D0E94490A0E947E0A41C0F12FFF7016
:10434000BF2E812F807F803219F0B29480EFB82287
:10435000882029F121E0821609F4A5C0CC2009F4B7
:10436000AEC0DD2009F47EC020E0D7014C9111964B
:104370005C91119712966C91129713967C911397FA
:1043800014968C910E9492148091190381FDB8CFEC
:10439000F701858180FFB4CF8F70858363C08091E2
:1043A0008F0482FF41C0CC20C9F1BB2029F08B2DA6
:1043B0000E94570A0E947E0A80E00E941F11492D28
:1043C0004850550B4430510520F40E941A070E94B2
:1043D000B20DC8010E94540C8111C2C11092CC01CF
:1043E0001092CB01AA20A9F08091260280FD11C075
:1043F000F70112828595859585950E94B80CC701B5
:104400000E947F1B809126028595859585950E9447
:10441000900C60E0C7010E94BB145ACA80E00E9461
:10442000FC0CBB2061F280CFCC2001F1D11004C084
:1044300080912A028B2917C031E0D31206C08091E7
:104440002A028B290E94350ABACF80911803823044
:1044500078F3D812EDCF0E942A0A80912302B81275
:10446000B09223028B2D0E94F50CA9CFD11006C06B
:104470000E942A0A8B2D0E94EE0CA1CF8091180376
:1044800041E0D4120BC0823008F499CF8091C4026D
:104490008B2109F494CF0E945F0BEACF823040F366
:1044A0008D11E6CF8CCFCC2029F055E05D1508F4B6
:1044B00086CFD8CF84E08D1508F481CFDBCFDD2007
:1044C000C9F2F9E38F1244C180911C0390911D033E
:1044D0000E94970E802F0E94FC0C71CF812F869531
:1044E0008695837061F0813009F069CFC8019370BF
:1044F000C11002C090E080E00E94EE0660CFC801CB
:104500009370C11002C090E080E00E94040757CF72
:10451000812F837091F5C11052CF402F429546955F
:104520004770440F440F802F8F70042E01C0880FF6
:104530000A94EAF7202F207104FF07C02FE030E033
:1045400001C0220F4A95EAF72095312F369536950E
:104550003370323069F050F440912B02313029F041
:10456000822B84230E94D90C2ACF842B822BFACF52
:10457000282B80912B028227F5CF8695CC2011F035
:10458000812F8170882309F41ACF402F42954695D8
:104590004770440F440F802F8F70042E01C0880F86
:1045A0000A94EAF7202F207104FF07C02FE030E0C3
:1045B00001C0220F4A95EAF72095312F369536959E
:1045C0003370323069F050F44091C304313029F037
:1045D000822B84230E94810CF2CE842B822BFACF73
:1045E000282B8091C3048227F5CF212F2F70B22E64
:1045F000CC2029F0822F0E94B80C802F34CF802F3E
:104600000E94EE0C8B2D0E94900CD9CE802F32EFA1
:104610008316B1F1381570F040EF8416D1F051EFE8
:10462000851691F0CC2009F48EC0D11069CE812F6F
:104630008F712AC093EF891651F1A4EF8A12F2CF3D
:1046400080918F0482FF2FC0812F8F71CC20D9F2EF
:104650001BC0CC2081F0B4E0BD1508F4B0CE212FF2
:104660002F7181E090E001C0880F2A95EAF79091C0
:10467000C3048927AFCFE5E0ED1508F4A0CEEFCF56
:10468000812F8F71C110BFCF0E94B80C98CE80E0EF
:10469000CC2009F49FCF81E0912F9F7101C0880F3A
:1046A0009A95EAF797CF809118038230A0F1809114
:1046B0002302CC20F1F00E94500A809126028770DC
:1046C000843041F40E945D0A812F8F710E94900C0A
:1046D000A12C75CE80911803D816D0F7F12FFF7159
:1046E000BF2E8F2F0E94B80C63E08B2D0E94C30C4D
:1046F000EFCF0E94570A80911803D81640F00E940D
:104700005D0A0E945F0B64E0812F8F71EFCF81E023
:104710000E949C0CDDCFCC2059F0212F2F71B22E9E
:10472000822F0E94B80C63E08B2D0E94C30C47CEF1
:1047300081E00E949C0C31E03D1508F040CE82E003
:104740000E949C0C3CCEDD2041F0893309F4BCCEA4
:1047500080911A0390911B03BBCE812F8F7153CF91
:10476000CC2019F0D1103ACE3DCED11037CE20E07A
:10477000D7014C9111965C91119712966C911297FA
:1047800013967C91139714968C910E9492148091A9
:10479000190383FF23CE8091CB019091CC01029726
:1047A00009F01CCE802F0E94C81118CECC2029F011
:1047B000DC0118968C9185FF8EC9C80197558F3FF3
:1047C000910511F008F048C02091010130910201DB
:1047D0002817390724F49093020180930101F7010F
:1047E000228136E1389F5001399FB00C1124A50178
:1047F0004D5D5C4F6A01DA0150962C93509792817F
:1048000016968C911697992309F467C91A961C93EA
:104810000E9319978F5F16968C930E94E206F6010D
:104820009687858780912A0287838091C204909120
:10483000C402892B80870190F081E02D309741F0F0
:10484000D60154966D917C91C501875D9C4F099569
:1048500010932203009321038091170380FF39C036
:104860000E94E2066C01D70112968C91882309F40C
:1048700050C98091210182FF08C02FE232E040E060
:10488000B60190E080E00E947B120B31BCE51B0773
:1048900009F431C90C31ECE51E0709F432C99091D5
:1048A0002101892F8E7F90FF81600A31FCE51F076F
:1048B00009F42AC9C8019056811520E2920728F010
:1048C000905E8115904108F032C91092E802109272
:1048D000E702033FBCE51B0709F479CA08F017CAD1
:1048E000083DFCE51F0709F46CCA093D2CE51207D9
:1048F00009F485CA073D3CE5130709F014CA06E22E
:1049000021EE41EE67ED7CE5C7010E94E9110C94B0
:10491000581C8091C8019091C9010817190709F026
:10492000A2C81092C9011092C8011092F10210920F
:10493000F2021092F3021092F402BDC80031FFE5BA
:104940001F0709F447C801312FE5120711F00C9435
:10495000E91B82E040C806311C4509F08DCA8091F0
:10496000C402982F9A7A2091160320FF04C0482F82
:10497000447409F090E021FF04C0482F417109F010
:1049800090E022FF04C0482F487809F090E023FF10
:1049900003C0827209F090E0332309F499CB81E0DF
:1049A000911101C080E08093CA0189E2911185E3F1
:1049B0000E94900B0E947E0A0C94581CBF92CF92CA
:1049C000DF92EF92FF920F931F93CF93DF9380912B
:1049D000F001807F61F48091ED01882341F0C09166
:1049E000220286E0B82E8091F1018C130AC0DF917B
:1049F000CF911F910F91FF90EF90DF90CF90BF90DC
:104A00000895F090EB01E090EC01C090EE01D090A1
:104A1000EF01A6016E2D8F2D0E94E40BD0E08111D5
:104A20003DC0BC9E8001BD9E100D1124F801EE50CA
:104A3000FE4F81818E1132C080818F112FC0828103
:104A400081112CC0E380F480EC18FD0860E08BEE4F
:104A500091E00E94BB148091140390911503E81615
:104A6000F906E0F48091F0018F7080618093F0018D
:104A7000F801E950FE4F80818F70806180838BEE5A
:104A800091E00E947F1BDF91CF911F910F91FF90CA
:104A9000EF90DF90CF90BF900C94EF0B2196C770F2
:104AA000A2CF3F924F925F926F927F928F929F928E
:104AB000AF92BF92CF92DF92EF92FF920F931F932C
:104AC000CF93DF93CDB7DEB761970FB6F894DEBF13
:104AD0000FBECDBF8C0185E0F801DE011D9601906F
:104AE0000D928A95E1F7D8014C9011965C90119740
:104AF0001296EC9012971396CD90DC9060E08BEEBE
:104B000091E00E94BB148BEEA82E81E0B82E80901D
:104B1000EE019090EF01A4016091EC018091EB0116
:104B20000E94E40B811197C1F090ED01F601E819A4
:104B3000F9094F0160E0FF2009F443C1C5010E945B
:104B4000BB1460901403709015033090F00186142C
:104B5000970408F0F8C04091EE015091EF01B09039
:104B6000EB01A090EC01832D807F6A2D09F0A3C09A
:104B70008B2D0E94E40BFE2C811131C0D8011196BF
:104B80008C9111978A112BC08C918B1128C0E11048
:104B900026C0832D8F7080618093F0018BEE91E0B1
:104BA0000E947F1B8091F001F80185838F2D619613
:104BB0000FB6F894DEBF0FBECDBFDF91CF911F912E
:104BC0000F91FF90EF90DF90CF90BF90AF909F90AC
:104BD0008F907F906F905F904F903F900895F4EF8B
:104BE0006F16F1E07F0620F48091190380FF21C049
:104BF000A601652D842D0E94E40B811118C081E06F
:104C00008E2580FF16C04E2D652D842D0E94C40B6D
:104C1000882379F08BEE91E00E947F1B86E0EBEE1B
:104C2000F1E0DF011D928A95E9F7F12CBFCF80E01A
:104C3000E8CFA601652D842D0E94E40B811124C0CC
:104C400081E08E25B82FB170CB2E80FF2BC04E2D6A
:104C5000652D842D0E94C40BD82E811123C04D8652
:104C60005E868D859E850E947F14292F22952F7048
:104C7000223060F0243088F49F7061F0F801958153
:104C8000907F41F4FD2C92CF80E0DCCF9F7011F03B
:104C90008823C1F3805E8830A8F3C8010E947F1B7F
:104CA000DC2CF0CFEE2009F481CF8091F0018160FF
:104CB0008093F001BACF8B2D0E94E40B811119C0B3
:104CC000D80111968C9111978A1113C08C918B1178
:104CD00010C0E1100EC015963C92C8010E947F1BC7
:104CE00086E0F801ABEEB1E001900D928A95E1F714
:104CF0005DCFC8010E948B14882309F1EE20F9F0E2
:104D00008091F001803270F02091EB013091EC0144
:104D100038872F831986DB86CA868C87CE01079653
:104D20000E947F1B86E0F801ABEEB1E001900D928E
:104D30008A95E1F70E94DE24FF24F39437CFC8015F
:104D40000E947F1BF9CF832D807F09F463CF909061
:104D5000EB018090EC014091EE015091EF01682D44
:104D6000892D0E94E40B811113C0F8018181881103
:104D70000FC0808189110CC0E1100AC03582C801C2
:104D80000E947F1B86E0D5011D928A95E9F70ECF20
:104D9000C8010E948B14882391F2EE2081F2809149
:104DA000F001803208F4BECF2091EB013091EC018C
:104DB0003A8329831B82DD82CC828E83CE010196C9
:104DC000AFCF8BEE91E00E94BB14809114039091C1
:104DD000150388169906B0F6FE2CEE2009F4AFCF25
:104DE000E090EB01D090EC014091EE015091EF0189
:104DF0006D2D8E2D0E94E40B81111FC0F801818161
:104E00008D111BC080818E1118C08091190382FD05
:104E100067CF9091F00190FD63CF907F09F460CF50
:104E20008091F0018583903F09F457CF982F907FB0
:104E3000905F8F70892B858350CFC8010E948B149F
:104E4000811170CF8091F00181608093F001C801E1
:104E50000E947F1BABCEEE2009F471CFC8010E94E7
:104E60008B14F82E882309F46ACF86E0F801ABEEA4
:104E7000B1E001900D928A95E1F78091EB0190915C
:104E8000EC010E947F140E94DE2490CE1F93CF93EA
:104E9000DF93CDB7DEB767970FB6F894DEBF0FBECE
:104EA000CDBF942F4B8B252F5C8B6D8B7E8B8F8B87
:104EB0004E895F89622F892F0E94E40B811109C0FE
:104EC0008091CB019091CC0101969093CC0180937D
:104ED000CB018D8981111092C2041A8A198A85E04A
:104EE000FE017396DE011D9601900D928A95E1F701
:104EF00080918F0482FD1EC08091FE029091FF027E
:104F0000892BC1F00E94E2062091240230912502F3
:104F1000821B930B2091FE023091FF0282179307B0
:104F200020F08091260282FF76C00E94640A8111DF
:104F30000E942A0A86E0FE013D96DE011796019046
:104F40000D928A95E1F7CE0107960E9451258111B5
:104F500011C086E0FE013796DE01119601900D9298
:104F60008A95E1F74A855B8568858F810E94E40B0D
:104F7000882389F016E0809122029091F101891333
:104F800037C067960FB6F894DEBF0FBECDBFDF9176
:104F9000CF911F9108952091F10130E0C901019650
:104FA00087709927409122024817190699F096E0D8
:104FB000929FD001939FB00D1124AE50BE4FFE01C1
:104FC000319601900D929A95E1F78093F1010E943C
:104FD000EF0BD0CF0E942C181092F10110922202F8
:104FE00086E0EBEEF1E0DF011D928A95E9F7C2CF92
:104FF000819FC00111248E509E4F0E94512588230D
:1050000009F4BFCF8091220290E001968770992722
:1050100080932202B0CF82E00E949C0C86CFCF9377
:10502000DF9300D000D00F92CDB7DEB79093C102CE
:105030008093C002811520E2920748F40F900F90F0
:105040000F900F900F90DF91CF910C94E90D8EEFA0
:1050500089838A831B820E94E2068160782F9D8368
:105060008C8349815A816B818D810F900F900F90B5
:105070000F900F90DF91CF910C9446270F931F93C1
:10508000CF93DF938C01EB0166EB72E08C2F0E94D3
:105090002E16892BA1F480911A0390911B030E9474
:1050A000970EDD27CA55DD4F8881F80110821882DE
:1050B000833009F148F4813059F0823081F0DF917A
:1050C000CF911F910F9108958430D1F08530B9F7B9
:1050D0008091B6029091B702009789F306C0809143
:1050E000B8029091B902009799F3DF91CF911F9187
:1050F0000F910C940F288091BA029091BB02F3CFCC
:105100008091BC029091BD02009779F72091B60280
:105110003091B7028091B8029091B9022115310502
:10512000D9F2009711F7C901E0CFCF93DF9300D0F8
:1051300000D00F92CDB7DEB79093C1028093C0022A
:10514000811520E2920748F40F900F900F900F9076
:105150000F90DF91CF910C9450128EEF89838A8348
:1051600081E08B830E94E2068160782F9D838C838F
:1051700049815A816B818D810F900F900F900F9014
:105180000F90DF91CF910C944627CF93DF93EC01E2
:105190000E94952880911A0390911B030E94970EFC
:1051A000CE01DF91CF910C940F280F931F93CF93D3
:1051B000DF938C01862F66EB72E00E942E16892BFE
:1051C000C9F4C091B602D091B702209799F0F801C6
:1051D0008081833069F4CE010E94C528CE010E94EF
:1051E000C528CE01DF91CF911F910F910C94C52856
:1051F0008430B8F7DF91CF911F910F9108950F93ED
:105200001F93CF93DF938C01EB0166EB72E08C2F41
:105210000E942E16892B09F064C0FE01FF27D801D9
:105220008C91EA55FD4F8130D9F419969C911997CC
:10523000992311F080830CC01A969C919923D1F385
:1052400082E080838091B8029091B9020097D9F4EE
:105250008091B6029091B702009709F442C013C042
:105260008230E9F519968C91199781112DC01A9603
:105270008C9181110EC083E080838091BA0290915D
:10528000BB02009719F1DF91CF911F910F910C9400
:10529000952884E080838091BC029091BD020097A4
:1052A00091F78091B6029091B7020097F9F00E94B1
:1052B000C5288091B8029091B902009721F780919A
:1052C000B6029091B702DFCF85E080838091B6026D
:1052D0009091B702009729F00E94C528F0CF86E090
:1052E0008083DF91CF911F910F9108958091B80233
:1052F0009091B902B1CF6F927F928F929F92AF92AD
:10530000BF92CF92DF92EF92FF920F931F93CF93B2
:10531000DF93CDB7DEB72A970FB6F894DEBF0FBE86
:10532000CDBF8E010F5F1F4F8AE0F80111928A9561
:10533000E9F79CE5E92E91E0F92E68016624639473
:10534000712C31E7832E31E0932EF70181917F019B
:105350008F3F09F445C0F894E82FE295EF70F0E034
:1053600021A18F70A30102C0440F551F8A95E2F757
:10537000CA01922F982B91A392A18095892382A391
:10538000789400C0E1E6F1E021E030E0B12CA12CFE
:1053900041914F3F09F480C0A42FA295AF70B0E0B7
:1053A00090968C9190E04F7002C0959587954A95A4
:1053B000E2F780FD71C0C901A82AB92A220F331F64
:1053C0008E169F0629F7F701319780818F3F11F0E4
:1053D0000E94530850EA5A95F1F7F601B182A08273
:1053E000F2E0CF0ED11C21E6E21621E0F20609F030
:1053F000ACCF4AE050E0B80185E392E00E948233EE
:10540000DD24D394009709F4D12C892B09F447C0EB
:105410008AE0F801A5E3B2E001900D928A95E1F7E8
:1054200081E080932E020E94E20690932D028093E9
:105430002C0280912C0290912D020E94C7060597A4
:1054400090F18091350290913602909351028093B1
:1054500050028091370290913802909353028093CA
:1054600052028091390290913A02909355028093B2
:10547000540280913B0290913C029093570280939A
:10548000560280913D0290913E0290935902809382
:10549000580210922E0207C090E080E08DCF8091DC
:1054A0002E028111C6CF8091F8029091F902892BCA
:1054B00009F43EC04091ED025091EE026091EF027E
:1054C0007091F0022FB7F89480918A0490918B0428
:1054D000A0918C04B0918D042FBF841B950BA60B5B
:1054E000B70B4091E9025091EA026091EB02709192
:1054F000EC0284179507A607B707D0F08091F80251
:105500009091F9020E9450121092F9021092F80242
:105510001092ED021092EE021092EF021092F00241
:105520001092E9021092EA021092EB021092EC0241
:10553000809101019091020110E006E1019609F0CD
:1055400049C08091170380FD4FC08D2D2A960FB65C
:10555000F894DEBF0FBECDBFDF91CF911F910F91A9
:10556000FF90EF90DF90CF90BF90AF909F908F9083
:105570007F906F900895089FF001099FF00D11240E
:10558000ED5DFC4FE288F388E114F10421F4E09032
:105590001403F0901503089FF001099FF00D1124EA
:1055A000ED5DFC4F86818823A1F0858596850E945C
:1055B000C706E816F90668F4109F70011124C701A8
:1055C0008D5D9C4F0E94200BC701875D9C4F0E9400
:1055D000DB0A1F5F812F90E02091010130910201D1
:1055E0002817390744F6ADCF8091210182FFADCF56
:1055F0000E94E2062091E5023091E602AC01421BD6
:10560000530B20911F01309120014217530708F4DA
:105610009CCF2FE232E041E0BC018091E702909103
:10562000E8020E947B1291CF90E080E00E94BD339F
:105630008A3E9E4F11F40C94C41480E008951F928A
:105640000F920FB60F9211242F933F934F935F93B6
:105650006F937F938F939F93AF93BF93CF93DF937A
:10566000EF93FF93D091E900DF708091EC00C82F99
:10567000C17080FDC0E81092E9008091F000877F42
:105680008093F00078940E9441181092E900809174
:10569000F00088608093F000CD2BCF70C093E900BC
:1056A000FF91EF91DF91CF91BF91AF919F918F913A
:1056B0007F916F915F914F913F912F910F900FBE0E
:1056C0000F901F9018951F920F920FB60F921124F2
:1056D0002F933F934F935F936F937F938F939F93FA
:1056E000AF93BF93EF93FF938091E10082FF09C0D6
:1056F0008091E20082FF05C08091E1008B7F809362
:10570000E1008091DA0080FF24C08091D80080FF02
:1057100020C08091DA008E7F8093DA008091D900DA
:1057200080FF9DC080E189BD82E189BD09B400FE92
:10573000FDCF81E08093B80480919304811109C06A
:105740000E9437050E9402068091E20084608093E7
:10575000E2008091E10080FF17C08091E20080FFAD
:1057600013C08091E2008E7F8093E2008091E2007E
:1057700080618093E2008091D80080628093D8009D
:1057800019BC85E08093B8048091E10084FF2BC0B0
:105790008091E20084FF27C080E189BD82E189BD5C
:1057A00089B5982F917080FFFBCF8091D8008F7DB5
:1057B0008093D8008091E1008F7E8093E1008091FA
:1057C000E2008F7E8093E2008091E200816080930E
:1057D000E2008091B904882309F447C084E08093F3
:1057E000B8048091B8048091E10083FF27C08091C4
:1057F000E20083FF23C08091E100877F8093E10076
:1058000082E08093B8041092B9048091E1008E7F09
:105810008093E1008091E2008E7F8093E20080918E
:10582000E20080618093E20042E060E080E00E945C
:10583000D0058091F00088608093F000FF91EF9197
:10584000BF91AF919F918F917F916F915F914F9198
:105850003F912F910F900FBE0F901F90189519BC7C
:105860001092B8041092930474CF8091E30087FDE6
:1058700093E09093B804B5CF78941F921FB61F920F
:1058800011248F939F93AF93BF9380918A0490913B
:105890008B04A0918C04B0918D040196A11DB11DC3
:1058A00080938A0490938B04A0938C04B0938D040E
:1058B000BF91AF919F918F911F901FBE1F90189520
:1058C0001F921FB61F9211248F939F93AF93BF9384
:1058D00080918904811113C080918A0490918B0476
:1058E000A0918C04B0918D044196A11DB11D8093AF
:1058F0008A0490938B04A0938C04B0938D04BF9181
:10590000AF919F918F911F901FBE1F901895CDB79B
:10591000DEB7E4970FB6F894DEBF0FBECDBF84B7F5
:10592000877F84BF0FB6F894A89580916000886146
:1059300080936000109260000FBE80E890E00FB688
:10594000F89480936100909361000FBE85B78068E2
:1059500085BF85B7806885BF81E598E09093A701F2
:105960008093A6010E9442160E94DF130E94370511
:105970000E9402068091E20084608093E2007894A5
:105980008091B8048823A1F01091E9001F709091D4
:10599000EC00892F817090FD80E8182B1092E900AF
:1059A0008091E80083FD0E9441181F701093E90068
:1059B00082E084BD93E095BD9AEF97BD80936E0021
:1059C0000E94C414811102C00E941F160CE511E050
:1059D00041E6E42E41E0F42ED8018D918D018F3FF8
:1059E00011F00E945308E016F106B1F701E611E04C
:1059F000F80181918F018F3F11F00E945308F1E06F
:105A000001371F07A9F78AE0E0E5F2E0DF01282F60
:105A10001D922A95E9F7E5E3F2E0DF011D928A95F0
:105A2000E9F70E94142B811102C00E94151B82E02D
:105A300090E00E94AF33809343020E94DD14909364
:105A40008F0480938E040E947B29EFE3FCE9319759
:105A5000F1F700C000000E947B298091500280FF76
:105A600008C06FEF7FEF90E080E00E94E1330E947A
:105A7000730E83E090E00E94AF330E94D90C879AA6
:105A80008F9A80913F02811133C00E94142B8111A3
:105A900004C00E94151B0E941C1888E090E00E9420
:105AA000B7336093A1027093A2028093A3029093F4
:105AB000A4026E7F71F40E941C1888E090E00E949E
:105AC000B7336093A1027093A2028093A3029093D4
:105AD000A4020E94A507109261028091A10280FF9A
